{
  "contractName": "ContractRegistry",
  "abi": [
    {
      "inputs": [],
      "payable": false,
      "stateMutability": "nonpayable",
      "type": "constructor"
    },
    {
      "anonymous": false,
      "inputs": [
        {
          "indexed": false,
          "internalType": "string",
          "name": "name",
          "type": "string"
        },
        {
          "indexed": true,
          "internalType": "address",
          "name": "contractAddress",
          "type": "address"
        }
      ],
      "name": "UpdateContract",
      "type": "event"
    },
    {
      "constant": false,
      "inputs": [
        {
          "internalType": "string",
          "name": "_name",
          "type": "string"
        },
        {
          "internalType": "address",
          "name": "_address",
          "type": "address"
        }
      ],
      "name": "updateContractAddress",
      "outputs": [
        {
          "internalType": "address",
          "name": "",
          "type": "address"
        }
      ],
      "payable": false,
      "stateMutability": "nonpayable",
      "type": "function"
    },
    {
      "constant": true,
      "inputs": [
        {
          "internalType": "string",
          "name": "_name",
          "type": "string"
        }
      ],
      "name": "getContractAddress",
      "outputs": [
        {
          "internalType": "address",
          "name": "",
          "type": "address"
        }
      ],
      "payable": false,
      "stateMutability": "view",
      "type": "function"
    }
  ],
  "bytecode": "0x608060405234801561001057600080fd5b5061002933600061002e60201b6104cb1790919060201c565b6101ed565b61003e828261010f60201b60201c565b156100b1576040517f08c379a000000000000000000000000000000000000000000000000000000000815260040180806020018281038252601f8152602001807f526f6c65733a206163636f756e7420616c72656164792068617320726f6c650081525060200191505060405180910390fd5b60018260000160008373ffffffffffffffffffffffffffffffffffffffff1673ffffffffffffffffffffffffffffffffffffffff16815260200190815260200160002060006101000a81548160ff0219169083151502179055505050565b60008073ffffffffffffffffffffffffffffffffffffffff168273ffffffffffffffffffffffffffffffffffffffff161415610196576040517f08c379a00000000000000000000000000000000000000000000000000000000081526004018080602001828103825260228152602001806108216022913960400191505060405180910390fd5b8260000160008373ffffffffffffffffffffffffffffffffffffffff1673ffffffffffffffffffffffffffffffffffffffff16815260200190815260200160002060009054906101000a900460ff16905092915050565b610625806101fc6000396000f3fe608060405234801561001057600080fd5b50600436106100365760003560e01c806304433bbc1461003b57806338aed2f7146100f4575b600080fd5b6100b26004803603602081101561005157600080fd5b810190808035906020019064010000000081111561006e57600080fd5b82018360208201111561008057600080fd5b803590602001918460018302840111640100000000831117156100a257600080fd5b90919293919293905050506101cd565b604051808273ffffffffffffffffffffffffffffffffffffffff1673ffffffffffffffffffffffffffffffffffffffff16815260200191505060405180910390f35b61018b6004803603604081101561010a57600080fd5b810190808035906020019064010000000081111561012757600080fd5b82018360208201111561013957600080fd5b8035906020019184600183028401116401000000008311171561015b57600080fd5b9091929391929390803573ffffffffffffffffffffffffffffffffffffffff16906020019092919050505061021f565b604051808273ffffffffffffffffffffffffffffffffffffffff1673ffffffffffffffffffffffffffffffffffffffff16815260200191505060405180910390f35b600060018383604051808383808284378083019250505092505050908152602001604051809103902060009054906101000a900473ffffffffffffffffffffffffffffffffffffffff16905092915050565b60008084849050141561027d576040517f08c379a00000000000000000000000000000000000000000000000000000000081526004018080602001828103825260288152602001806105a76028913960400191505060405180910390fd5b6102913360006103ed90919063ffffffff16565b610303576040517f08c379a00000000000000000000000000000000000000000000000000000000081526004018080602001828103825260138152602001807f41646d696e20726f6c652072657175697265640000000000000000000000000081525060200191505060405180910390fd5b8160018585604051808383808284378083019250505092505050908152602001604051809103902060006101000a81548173ffffffffffffffffffffffffffffffffffffffff021916908373ffffffffffffffffffffffffffffffffffffffff1602179055508173ffffffffffffffffffffffffffffffffffffffff167fbc3033706311de40ef10e265f8dd3d699529b780126a1c727cb205cc798cbbab858560405180806020018281038252848482818152602001925080828437600081840152601f19601f820116905080830192505050935050505060405180910390a28190509392505050565b60008073ffffffffffffffffffffffffffffffffffffffff168273ffffffffffffffffffffffffffffffffffffffff161415610474576040517f08c379a00000000000000000000000000000000000000000000000000000000081526004018080602001828103825260228152602001806105cf6022913960400191505060405180910390fd5b8260000160008373ffffffffffffffffffffffffffffffffffffffff1673ffffffffffffffffffffffffffffffffffffffff16815260200190815260200160002060009054906101000a900460ff16905092915050565b6104d582826103ed565b15610548576040517f08c379a000000000000000000000000000000000000000000000000000000000815260040180806020018281038252601f8152602001807f526f6c65733a206163636f756e7420616c72656164792068617320726f6c650081525060200191505060405180910390fd5b60018260000160008373ffffffffffffffffffffffffffffffffffffffff1673ffffffffffffffffffffffffffffffffffffffff16815260200190815260200160002060006101000a81548160ff021916908315150217905550505056fe6e616d65206d757374206265206174206c65617374206f6e6520636861726163746572206c6f6e67526f6c65733a206163636f756e7420697320746865207a65726f2061646472657373a265627a7a72315820b5e0e5e0f626489b6e04e393b17552c3707c3bf23cb768bc9122753c85c4285b64736f6c634300050c0032526f6c65733a206163636f756e7420697320746865207a65726f2061646472657373",
  "source": "pragma solidity 0.5.12;\n\nimport \"openzeppelin-solidity/contracts/access/Roles.sol\";\n\n\ncontract ContractRegistry {\n  using Roles for Roles.Role;\n\n  Roles.Role private admin;\n\n  mapping (string => address) private contractAddresses;\n\n  event UpdateContract(string name, address indexed contractAddress);\n\n  constructor()\n    public\n  {\n    admin.add(msg.sender);\n  }\n\n  function updateContractAddress(\n    string calldata _name,\n    address _address\n  )\n    external\n    returns (address)\n  {\n    require(bytes(_name).length != 0, \"name must be at least one character long\");\n    require(admin.has(msg.sender), \"Admin role required\");\n\n    contractAddresses[_name] = _address;\n    emit UpdateContract(_name, _address);\n\n    return _address;\n  }\n\n  function getContractAddress(string calldata _name)\n    external\n    view\n    returns (address)\n  {\n    return contractAddresses[_name];\n  }\n}",
  "sourcePath": "/home/bbk-dev/git/game-jam-smart-contracts/contracts/ContractRegistry.sol",
  "compiler": {
    "name": "solc",
    "version": "0.5.12+commit.7709ece9.Emscripten.clang"
  },
  "schemaVersion": "3.0.16",
  "updatedAt": "2019-10-26T19:37:07.970Z",
  "devdoc": {
    "methods": {}
  },
  "userdoc": {
    "methods": {}
  }
}