{
  "contractName": "GameJamManager",
  "abi": [
    {
      "inputs": [
        {
          "internalType": "address",
          "name": "_registryAddress",
          "type": "address"
        }
      ],
      "payable": false,
      "stateMutability": "nonpayable",
      "type": "constructor"
    },
    {
      "anonymous": false,
      "inputs": [
        {
          "indexed": true,
          "internalType": "address",
          "name": "gameJamAddress",
          "type": "address"
        }
      ],
      "name": "GameJamAdded",
      "type": "event"
    },
    {
      "anonymous": false,
      "inputs": [
        {
          "indexed": true,
          "internalType": "address",
          "name": "account",
          "type": "address"
        }
      ],
      "name": "GameJamManagerAdded",
      "type": "event"
    },
    {
      "constant": true,
      "inputs": [
        {
          "internalType": "bytes32",
          "name": "",
          "type": "bytes32"
        }
      ],
      "name": "gameJamList",
      "outputs": [
        {
          "internalType": "address",
          "name": "",
          "type": "address"
        }
      ],
      "payable": false,
      "stateMutability": "view",
      "type": "function"
    },
    {
      "constant": true,
      "inputs": [
        {
          "internalType": "address",
          "name": "account",
          "type": "address"
        }
      ],
      "name": "isGameJamManager",
      "outputs": [
        {
          "internalType": "bool",
          "name": "",
          "type": "bool"
        }
      ],
      "payable": false,
      "stateMutability": "view",
      "type": "function"
    },
    {
      "constant": true,
      "inputs": [],
      "name": "getAllGameJamAddresses",
      "outputs": [
        {
          "internalType": "address[]",
          "name": "",
          "type": "address[]"
        }
      ],
      "payable": false,
      "stateMutability": "view",
      "type": "function"
    },
    {
      "constant": false,
      "inputs": [
        {
          "internalType": "bytes32",
          "name": "_name",
          "type": "bytes32"
        },
        {
          "internalType": "address",
          "name": "admin",
          "type": "address"
        }
      ],
      "name": "addNewGameJam",
      "outputs": [
        {
          "internalType": "bytes32",
          "name": "",
          "type": "bytes32"
        }
      ],
      "payable": true,
      "stateMutability": "payable",
      "type": "function"
    }
  ],
  "bytecode": "0x608060405234801561001057600080fd5b506040516112033803806112038339818101604052602081101561003357600080fd5b8101908080519060200190929190505050600073ffffffffffffffffffffffffffffffffffffffff168173ffffffffffffffffffffffffffffffffffffffff16141561007e57600080fd5b806000806101000a81548173ffffffffffffffffffffffffffffffffffffffff021916908373ffffffffffffffffffffffffffffffffffffffff1602179055506100cd336100d360201b60201c565b506102f0565b6100eb81600361013160201b6107831790919060201c565b8073ffffffffffffffffffffffffffffffffffffffff167f10e5a1aa6f2296a041c44f80adf7d836b963a23e6622c82092efa6d996095a8b60405160405180910390a250565b610141828261021260201b60201c565b156101b4576040517f08c379a000000000000000000000000000000000000000000000000000000000815260040180806020018281038252601f8152602001807f526f6c65733a206163636f756e7420616c72656164792068617320726f6c650081525060200191505060405180910390fd5b60018260000160008373ffffffffffffffffffffffffffffffffffffffff1673ffffffffffffffffffffffffffffffffffffffff16815260200190815260200160002060006101000a81548160ff0219169083151502179055505050565b60008073ffffffffffffffffffffffffffffffffffffffff168273ffffffffffffffffffffffffffffffffffffffff161415610299576040517f08c379a00000000000000000000000000000000000000000000000000000000081526004018080602001828103825260228152602001806111e16022913960400191505060405180910390fd5b8260000160008373ffffffffffffffffffffffffffffffffffffffff1673ffffffffffffffffffffffffffffffffffffffff16815260200190815260200160002060009054906101000a900460ff16905092915050565b610ee2806102ff6000396000f3fe60806040526004361061003f5760003560e01c80630a3e1f8f1461004457806396081f35146100ad578063a92881d814610128578063eddccc2414610194575b600080fd5b34801561005057600080fd5b506100936004803603602081101561006757600080fd5b81019080803573ffffffffffffffffffffffffffffffffffffffff1690602001909291905050506101f6565b604051808215151515815260200191505060405180910390f35b3480156100b957600080fd5b506100e6600480360360208110156100d057600080fd5b8101908080359060200190929190505050610213565b604051808273ffffffffffffffffffffffffffffffffffffffff1673ffffffffffffffffffffffffffffffffffffffff16815260200191505060405180910390f35b34801561013457600080fd5b5061013d610246565b6040518080602001828103825283818151815260200191508051906020019060200280838360005b83811015610180578082015181840152602081019050610165565b505050509050019250505060405180910390f35b6101e0600480360360408110156101aa57600080fd5b8101908080359060200190929190803573ffffffffffffffffffffffffffffffffffffffff1690602001909291905050506102d4565b6040518082815260200191505060405180910390f35b600061020c8260036104f290919063ffffffff16565b9050919050565b60026020528060005260406000206000915054906101000a900473ffffffffffffffffffffffffffffffffffffffff1681565b606060018054806020026020016040519081016040528092919081815260200182805480156102ca57602002820191906000526020600020905b8160009054906101000a900473ffffffffffffffffffffffffffffffffffffffff1673ffffffffffffffffffffffffffffffffffffffff1681526020019060010190808311610280575b5050505050905090565b60006102df336101f6565b610334576040517f08c379a000000000000000000000000000000000000000000000000000000000815260040180806020018281038252604a815260200180610e64604a913960600191505060405180910390fd5b600061033e6105d0565b73ffffffffffffffffffffffffffffffffffffffff1690508073ffffffffffffffffffffffffffffffffffffffff166334675aeb846040518263ffffffff1660e01b8152600401808273ffffffffffffffffffffffffffffffffffffffff1673ffffffffffffffffffffffffffffffffffffffff168152602001915050600060405180830381600087803b1580156103d557600080fd5b505af11580156103e9573d6000803e3d6000fd5b50505050806002600086815260200190815260200160002060006101000a81548173ffffffffffffffffffffffffffffffffffffffff021916908373ffffffffffffffffffffffffffffffffffffffff16021790555060018190806001815401808255809150509060018203906000526020600020016000909192909190916101000a81548173ffffffffffffffffffffffffffffffffffffffff021916908373ffffffffffffffffffffffffffffffffffffffff160217905550508073ffffffffffffffffffffffffffffffffffffffff167ff314602fc17c3119a1d591fa560483ddb604778c0ef2b4821be21a7a2781e95f60405160405180910390a28391505092915050565b60008073ffffffffffffffffffffffffffffffffffffffff168273ffffffffffffffffffffffffffffffffffffffff161415610579576040517f08c379a0000000000000000000000000000000000000000000000000000000008152600401808060200182810382526022815260200180610e426022913960400191505060405180910390fd5b8260000160008373ffffffffffffffffffffffffffffffffffffffff1673ffffffffffffffffffffffffffffffffffffffff16815260200190815260200160002060009054906101000a900460ff16905092915050565b6000806000809054906101000a900473ffffffffffffffffffffffffffffffffffffffff1673ffffffffffffffffffffffffffffffffffffffff166304433bbc6040518163ffffffff1660e01b81526004018080602001828103825260078152602001807f47616d654a616d0000000000000000000000000000000000000000000000000081525060200191505060206040518083038186803b15801561067657600080fd5b505afa15801561068a573d6000803e3d6000fd5b505050506040513d60208110156106a057600080fd5b810190808051906020019092919050505090506000346000809054906101000a900473ffffffffffffffffffffffffffffffffffffffff16836040516106e590610776565b808373ffffffffffffffffffffffffffffffffffffffff1673ffffffffffffffffffffffffffffffffffffffff1681526020018273ffffffffffffffffffffffffffffffffffffffff1673ffffffffffffffffffffffffffffffffffffffff168152602001925050506040518091039082f080158015610769573d6000803e3d6000fd5b5090509050809250505090565b6105e38061085f83390190565b61078d82826104f2565b15610800576040517f08c379a000000000000000000000000000000000000000000000000000000000815260040180806020018281038252601f8152602001807f526f6c65733a206163636f756e7420616c72656164792068617320726f6c650081525060200191505060405180910390fd5b60018260000160008373ffffffffffffffffffffffffffffffffffffffff1673ffffffffffffffffffffffffffffffffffffffff16815260200190815260200160002060006101000a81548160ff021916908315150217905550505056fe60806040526000600360006101000a81548160ff0219169083600281111561002357fe5b02179055506040516105e33803806105e38339818101604052604081101561004a57600080fd5b810190808051906020019092919080519060200190929190505050600073ffffffffffffffffffffffffffffffffffffffff168273ffffffffffffffffffffffffffffffffffffffff16141561009f57600080fd5b80600660006101000a81548173ffffffffffffffffffffffffffffffffffffffff021916908373ffffffffffffffffffffffffffffffffffffffff16021790555081600560006101000a81548173ffffffffffffffffffffffffffffffffffffffff021916908373ffffffffffffffffffffffffffffffffffffffff16021790555050506104b1806101326000396000f3fe60806040526004361061004a5760003560e01c80630f6feac21461006f57806388215064146100d8578063b69ef8a81461012f578063b7a076c61461015a578063c040e6b81461022b575b6006543660008037600080366000845af48061006557600080fd5b3d6000803e3d6000f35b34801561007b57600080fd5b506100be6004803603602081101561009257600080fd5b81019080803573ffffffffffffffffffffffffffffffffffffffff169060200190929190505050610264565b604051808215151515815260200191505060405180910390f35b3480156100e457600080fd5b506100ed610281565b604051808273ffffffffffffffffffffffffffffffffffffffff1673ffffffffffffffffffffffffffffffffffffffff16815260200191505060405180910390f35b34801561013b57600080fd5b506101446102a7565b6040518082815260200191505060405180910390f35b34801561016657600080fd5b506101a96004803603602081101561017d57600080fd5b81019080803573ffffffffffffffffffffffffffffffffffffffff1690602001909291905050506102ad565b6040518080602001838152602001828103825284818151815260200191508051906020019080838360005b838110156101ef5780820151818401526020810190506101d4565b50505050905090810190601f16801561021c5780820380516001836020036101000a031916815260200191505b50935050505060405180910390f35b34801561023757600080fd5b50610240610369565b6040518082600281111561025057fe5b60ff16815260200191505060405180910390f35b600061027a82600061037c90919063ffffffff16565b9050919050565b600660009054906101000a900473ffffffffffffffffffffffffffffffffffffffff1681565b60015481565b6004602052806000526040600020600091509050806000018054600181600116156101000203166002900480601f0160208091040260200160405190810160405280929190818152602001828054600181600116156101000203166002900480156103595780601f1061032e57610100808354040283529160200191610359565b820191906000526020600020905b81548152906001019060200180831161033c57829003601f168201915b5050505050908060010154905082565b600360009054906101000a900460ff1681565b60008073ffffffffffffffffffffffffffffffffffffffff168273ffffffffffffffffffffffffffffffffffffffff161415610403576040517f08c379a000000000000000000000000000000000000000000000000000000000815260040180806020018281038252602281526020018061045b6022913960400191505060405180910390fd5b8260000160008373ffffffffffffffffffffffffffffffffffffffff1673ffffffffffffffffffffffffffffffffffffffff16815260200190815260200160002060009054906101000a900460ff1690509291505056fe526f6c65733a206163636f756e7420697320746865207a65726f2061646472657373a265627a7a72315820827a519bd4e2b2b93982bfd0355d41b59a0b8a29acd1247ca3449ada3eb5471664736f6c634300050c0032526f6c65733a206163636f756e7420697320746865207a65726f206164647265737347616d654a616d4d616e6167657220726f6c652072657175697265643a2063616c6c657220646f6573206e6f742068617665207468652047616d654a616d4d616e6167657220726f6c65a265627a7a723158203bbb72ca47792be6d6faa043fb14217a6fca10f639d0b6e2162cf2a912ec4fda64736f6c634300050c0032526f6c65733a206163636f756e7420697320746865207a65726f2061646472657373",
  "source": "pragma solidity 0.5.12;\n\nimport \"openzeppelin-solidity/contracts/access/Roles.sol\";\nimport \"./GameJamProxy.sol\";\nimport \"./interfaces/IGameJam.sol\";\nimport \"./interfaces/IRegistry.sol\";\n\n\ncontract GameJamManager {\n  using Roles for Roles.Role;\n\n  // Define a ContractRegistry to be setup in the Constructor\n  IRegistry registry;\n\n  //  Game Jam list so the Ethereum network can return a list of addresses\n  address[] private gameJams;\n\n  // Define a mapping to track GameJams using their name with their address\n  mapping (bytes32 => address) public gameJamList;\n\n  // Define RBAC List, Modifiers and Checks\n  Roles.Role private _gameJamManager;\n\n  event GameJamManagerAdded(address indexed account);\n  event GameJamAdded(address indexed gameJamAddress);\n\n  modifier onlyGameJamManager() {\n    require(isGameJamManager(msg.sender), \"GameJamManager role required: caller does not have the GameJamManager role\");\n    _;\n  }\n\n  // Function to check that the address is a valid Manager\n  function isGameJamManager(\n    address account\n  )\n    public\n    view\n    returns (bool)\n  {\n    return _gameJamManager.has(account);\n  }\n\n  // Return all game jam addresses\n  function getAllGameJamAddresses()\n    public\n    view\n    returns (address[] memory)\n  {\n    return gameJams;\n  }\n\n  // Function to add a new manager\n  function _addGameJamManager(address account)\n   internal\n  {\n    _gameJamManager.add(account);\n    emit GameJamManagerAdded(account);\n  }\n\n  constructor(\n    address _registryAddress\n  )\n    public\n  {\n    require(_registryAddress != address(0));\n\n    registry = IRegistry(_registryAddress);\n    _addGameJamManager(msg.sender);\n  }\n\n  // createGameJam creates a new GameJam contract\n  function createGameJamProxy()\n    private\n    returns (address _gameJamProxyAddress)\n  {\n    address gameJamAddress = registry.getContractAddress(\"GameJam\");\n    address gameJamProxyAddress = address((new GameJamProxy).value(msg.value)(address(registry), gameJamAddress));\n    return gameJamProxyAddress;\n  }\n\n  // creates a new game jam contract and addNewGameJam contract to two lists\n  function addNewGameJam(\n    bytes32 _name,\n    address admin\n  )\n    external\n    payable\n    onlyGameJamManager\n    returns (bytes32)\n  {\n    address payable _gameJamProxyAddress = address(uint(createGameJamProxy()));\n\n    IGameJam(_gameJamProxyAddress).initializeGameJam(\n      admin\n    );\n\n    gameJamList[_name] = _gameJamProxyAddress;\n    gameJams.push(_gameJamProxyAddress);\n\n    emit GameJamAdded(_gameJamProxyAddress);\n    return _name;\n  }\n}",
  "sourcePath": "/home/bbk-dev/git/game-jam-smart-contracts/contracts/GameJamManager.sol",
  "compiler": {
    "name": "solc",
    "version": "0.5.12+commit.7709ece9.Emscripten.clang"
  },
  "schemaVersion": "3.0.16",
  "updatedAt": "2019-10-26T19:37:07.964Z",
  "devdoc": {
    "methods": {}
  },
  "userdoc": {
    "methods": {}
  }
}