{
  "contractName": "GameJamProxy",
  "abi": [
    {
      "inputs": [
        {
          "internalType": "address",
          "name": "_registry",
          "type": "address"
        },
        {
          "internalType": "address",
          "name": "_gameJamContractAddress",
          "type": "address"
        }
      ],
      "payable": true,
      "stateMutability": "payable",
      "type": "constructor"
    },
    {
      "payable": true,
      "stateMutability": "payable",
      "type": "fallback"
    },
    {
      "constant": true,
      "inputs": [],
      "name": "balance",
      "outputs": [
        {
          "internalType": "uint256",
          "name": "",
          "type": "uint256"
        }
      ],
      "payable": false,
      "stateMutability": "view",
      "type": "function"
    },
    {
      "constant": true,
      "inputs": [
        {
          "internalType": "address",
          "name": "",
          "type": "address"
        }
      ],
      "name": "competitors",
      "outputs": [
        {
          "internalType": "string",
          "name": "ipfsHash",
          "type": "string"
        },
        {
          "internalType": "uint256",
          "name": "votes",
          "type": "uint256"
        }
      ],
      "payable": false,
      "stateMutability": "view",
      "type": "function"
    },
    {
      "constant": true,
      "inputs": [],
      "name": "gameJamContractAddress",
      "outputs": [
        {
          "internalType": "address",
          "name": "",
          "type": "address"
        }
      ],
      "payable": false,
      "stateMutability": "view",
      "type": "function"
    },
    {
      "constant": true,
      "inputs": [
        {
          "internalType": "address",
          "name": "account",
          "type": "address"
        }
      ],
      "name": "isGameJamAdmin",
      "outputs": [
        {
          "internalType": "bool",
          "name": "",
          "type": "bool"
        }
      ],
      "payable": false,
      "stateMutability": "view",
      "type": "function"
    },
    {
      "constant": true,
      "inputs": [],
      "name": "stage",
      "outputs": [
        {
          "internalType": "enum GameJamCommon.Stages",
          "name": "",
          "type": "uint8"
        }
      ],
      "payable": false,
      "stateMutability": "view",
      "type": "function"
    }
  ],
  "bytecode": "0x60806040526000600360006101000a81548160ff0219169083600281111561002357fe5b02179055506040516105e33803806105e38339818101604052604081101561004a57600080fd5b810190808051906020019092919080519060200190929190505050600073ffffffffffffffffffffffffffffffffffffffff168273ffffffffffffffffffffffffffffffffffffffff16141561009f57600080fd5b80600660006101000a81548173ffffffffffffffffffffffffffffffffffffffff021916908373ffffffffffffffffffffffffffffffffffffffff16021790555081600560006101000a81548173ffffffffffffffffffffffffffffffffffffffff021916908373ffffffffffffffffffffffffffffffffffffffff16021790555050506104b1806101326000396000f3fe60806040526004361061004a5760003560e01c80630f6feac21461006f57806388215064146100d8578063b69ef8a81461012f578063b7a076c61461015a578063c040e6b81461022b575b6006543660008037600080366000845af48061006557600080fd5b3d6000803e3d6000f35b34801561007b57600080fd5b506100be6004803603602081101561009257600080fd5b81019080803573ffffffffffffffffffffffffffffffffffffffff169060200190929190505050610264565b604051808215151515815260200191505060405180910390f35b3480156100e457600080fd5b506100ed610281565b604051808273ffffffffffffffffffffffffffffffffffffffff1673ffffffffffffffffffffffffffffffffffffffff16815260200191505060405180910390f35b34801561013b57600080fd5b506101446102a7565b6040518082815260200191505060405180910390f35b34801561016657600080fd5b506101a96004803603602081101561017d57600080fd5b81019080803573ffffffffffffffffffffffffffffffffffffffff1690602001909291905050506102ad565b6040518080602001838152602001828103825284818151815260200191508051906020019080838360005b838110156101ef5780820151818401526020810190506101d4565b50505050905090810190601f16801561021c5780820380516001836020036101000a031916815260200191505b50935050505060405180910390f35b34801561023757600080fd5b50610240610369565b6040518082600281111561025057fe5b60ff16815260200191505060405180910390f35b600061027a82600061037c90919063ffffffff16565b9050919050565b600660009054906101000a900473ffffffffffffffffffffffffffffffffffffffff1681565b60015481565b6004602052806000526040600020600091509050806000018054600181600116156101000203166002900480601f0160208091040260200160405190810160405280929190818152602001828054600181600116156101000203166002900480156103595780601f1061032e57610100808354040283529160200191610359565b820191906000526020600020905b81548152906001019060200180831161033c57829003601f168201915b5050505050908060010154905082565b600360009054906101000a900460ff1681565b60008073ffffffffffffffffffffffffffffffffffffffff168273ffffffffffffffffffffffffffffffffffffffff161415610403576040517f08c379a000000000000000000000000000000000000000000000000000000000815260040180806020018281038252602281526020018061045b6022913960400191505060405180910390fd5b8260000160008373ffffffffffffffffffffffffffffffffffffffff1673ffffffffffffffffffffffffffffffffffffffff16815260200190815260200160002060009054906101000a900460ff1690509291505056fe526f6c65733a206163636f756e7420697320746865207a65726f2061646472657373a265627a7a72315820827a519bd4e2b2b93982bfd0355d41b59a0b8a29acd1247ca3449ada3eb5471664736f6c634300050c0032",
  "source": "pragma solidity 0.5.12;\n\nimport \"openzeppelin-solidity/contracts/access/Roles.sol\";\nimport \"./interfaces/IRegistry.sol\";\nimport \"./GameJamCommon.sol\";\n\n\ncontract GameJamProxy is GameJamCommon {\n  // Define a ContractRegistry to be setup in the Constructor\n  IRegistry registry;\n\n  // Define address the Proxied contract\n  address public gameJamContractAddress;\n\n  constructor(\n    address _registry,\n    address _gameJamContractAddress\n  )\n    public\n    payable\n  {\n    require(_registry != address(0));\n\n    gameJamContractAddress = _gameJamContractAddress;\n    registry = IRegistry(_registry);\n  }\n\n  function()\n    external\n    payable\n  {\n    assembly {\n      // Load gameJam address from first storage pointer\n      let _gameJam := sload(gameJamContractAddress_slot)\n\n      // calldatacopy(t, f, s)\n      calldatacopy(\n        0x0, // t = mem position to\n        0x0, // f = mem position from\n        calldatasize // s = size bytes\n      )\n\n      // delegatecall(g, a, in, insize, out, outsize) => returns \"0\" on error, or \"1\" on success\n      let result := delegatecall(\n        gas, // g = gas\n        _gameJam, // a = address\n        0x0, // in = mem in  mem[in..(in+insize)\n        calldatasize, // insize = mem insize  mem[in..(in+insize)\n        0x0, // out = mem out  mem[out..(out+outsize)\n        0 // outsize = mem outsize  mem[out..(out+outsize)\n      )\n\n      if iszero(result) {\n        revert(0, 0)\n      }\n\n      // returndatacopy(t, f, s)\n      returndatacopy(\n        0x0, // t = mem position to\n        0x0,  // f = mem position from\n        returndatasize // s = size bytes\n      )\n\n      return(\n        0x0,\n        returndatasize\n      )\n    }\n  }\n}",
  "sourcePath": "/home/bbk-dev/git/game-jam-smart-contracts/contracts/GameJamProxy.sol",
  "compiler": {
    "name": "solc",
    "version": "0.5.12+commit.7709ece9.Emscripten.clang"
  },
  "schemaVersion": "3.0.16",
  "updatedAt": "2019-10-26T19:33:27.621Z",
  "devdoc": {
    "methods": {}
  },
  "userdoc": {
    "methods": {}
  }
}