{
  "contractName": "GameJamCommon",
  "abi": [
    {
      "constant": true,
      "inputs": [],
      "name": "balance",
      "outputs": [
        {
          "internalType": "uint256",
          "name": "",
          "type": "uint256"
        }
      ],
      "payable": false,
      "stateMutability": "view",
      "type": "function"
    },
    {
      "constant": true,
      "inputs": [
        {
          "internalType": "address",
          "name": "",
          "type": "address"
        }
      ],
      "name": "competitors",
      "outputs": [
        {
          "internalType": "string",
          "name": "ipfsHash",
          "type": "string"
        },
        {
          "internalType": "uint256",
          "name": "votes",
          "type": "uint256"
        }
      ],
      "payable": false,
      "stateMutability": "view",
      "type": "function"
    },
    {
      "constant": true,
      "inputs": [],
      "name": "stage",
      "outputs": [
        {
          "internalType": "enum GameJamCommon.Stages",
          "name": "",
          "type": "uint8"
        }
      ],
      "payable": false,
      "stateMutability": "view",
      "type": "function"
    },
    {
      "constant": true,
      "inputs": [
        {
          "internalType": "address",
          "name": "account",
          "type": "address"
        }
      ],
      "name": "isGameJamAdmin",
      "outputs": [
        {
          "internalType": "bool",
          "name": "",
          "type": "bool"
        }
      ],
      "payable": false,
      "stateMutability": "view",
      "type": "function"
    }
  ],
  "bytecode": "0x60806040526000600360006101000a81548160ff0219169083600281111561002357fe5b021790555034801561003457600080fd5b506103e2806100446000396000f3fe608060405234801561001057600080fd5b506004361061004c5760003560e01c80630f6feac214610051578063b69ef8a8146100ad578063b7a076c6146100cb578063c040e6b81461018f575b600080fd5b6100936004803603602081101561006757600080fd5b81019080803573ffffffffffffffffffffffffffffffffffffffff1690602001909291905050506101bb565b604051808215151515815260200191505060405180910390f35b6100b56101d8565b6040518082815260200191505060405180910390f35b61010d600480360360208110156100e157600080fd5b81019080803573ffffffffffffffffffffffffffffffffffffffff1690602001909291905050506101de565b6040518080602001838152602001828103825284818151815260200191508051906020019080838360005b83811015610153578082015181840152602081019050610138565b50505050905090810190601f1680156101805780820380516001836020036101000a031916815260200191505b50935050505060405180910390f35b61019761029a565b604051808260028111156101a757fe5b60ff16815260200191505060405180910390f35b60006101d18260006102ad90919063ffffffff16565b9050919050565b60015481565b6004602052806000526040600020600091509050806000018054600181600116156101000203166002900480601f01602080910402602001604051908101604052809291908181526020018280546001816001161561010002031660029004801561028a5780601f1061025f5761010080835404028352916020019161028a565b820191906000526020600020905b81548152906001019060200180831161026d57829003601f168201915b5050505050908060010154905082565b600360009054906101000a900460ff1681565b60008073ffffffffffffffffffffffffffffffffffffffff168273ffffffffffffffffffffffffffffffffffffffff161415610334576040517f08c379a000000000000000000000000000000000000000000000000000000000815260040180806020018281038252602281526020018061038c6022913960400191505060405180910390fd5b8260000160008373ffffffffffffffffffffffffffffffffffffffff1673ffffffffffffffffffffffffffffffffffffffff16815260200190815260200160002060009054906101000a900460ff1690509291505056fe526f6c65733a206163636f756e7420697320746865207a65726f2061646472657373a265627a7a723158201208513a323b1c8ee64fe2941d215a3f27319ab81ff5810e7f24c7b12361632264736f6c634300050c0032",
  "source": "pragma solidity 0.5.12;\n\nimport \"openzeppelin-solidity/contracts/access/Roles.sol\";\n\n\ncontract GameJamCommon {\n  using Roles for Roles.Role;\n\n  enum Stages\n  {\n    Registration,\n    InProgress,\n    Finished\n  }\n\n  // Define the roles\n  Roles.Role internal admins;\n\n  // Track the balance of the smart contract\n  uint public balance;\n\n  // List of addresses for Game Jam competitors\n  address[] internal competitorAddresses;\n\n  // Set the initial Stage\n  Stages public stage = Stages.Registration;\n\n  // winner of the game jam\n  address payable winner;\n\n  // Struct for competitor data\n  struct CompetitorData {\n    string ipfsHash;\n    uint votes;\n  }\n\n  // mapping for addresses to game locations\n  mapping(address => CompetitorData) public competitors;\n\n  // On Deploy, the sender of the transaction will be added as a admin\n  modifier onlyGameJamAdmin()\n  {\n    require(isGameJamAdmin(msg.sender), \"GameJamAdmin role required: caller does not have the GameJamAdmin role\");\n    _;\n  }\n\n  // Modifier used to restrict access unless a given Stage is active\n  modifier onlyAtStage(Stages _stage) {\n    require(\n      stage == _stage,\n      \"Function cannot be called at this time.\"\n    );\n    _;\n  }\n\n  // Function to check that the address is a valid admin\n  function isGameJamAdmin(address account)\n    public\n    view\n    returns (bool)\n  {\n    return admins.has(account);\n  }\n\n  // Advance the state of the contract to the next stage\n  function nextStage()\n    internal\n  {\n    stage = Stages(uint(stage) + 1);\n  }\n\n  // This modifier moves to the next stage\n  modifier transitionNext()\n  {\n    _;\n    nextStage();\n  }\n}",
  "sourcePath": "/home/bbk-dev/git/game-jam-smart-contracts/contracts/GameJamCommon.sol",
  "compiler": {
    "name": "solc",
    "version": "0.5.12+commit.7709ece9.Emscripten.clang"
  },
  "schemaVersion": "3.0.16",
  "updatedAt": "2019-10-26T19:33:27.614Z",
  "devdoc": {
    "methods": {}
  },
  "userdoc": {
    "methods": {}
  }
}