{
  "contractName": "GameJam",
  "abi": [
    {
      "anonymous": false,
      "inputs": [
        {
          "indexed": false,
          "internalType": "address",
          "name": "competitor",
          "type": "address"
        }
      ],
      "name": "CompetitorAdded",
      "type": "event"
    },
    {
      "anonymous": false,
      "inputs": [
        {
          "indexed": true,
          "internalType": "address",
          "name": "account",
          "type": "address"
        }
      ],
      "name": "GameJamAdminAdded",
      "type": "event"
    },
    {
      "anonymous": false,
      "inputs": [
        {
          "indexed": false,
          "internalType": "address",
          "name": "winner",
          "type": "address"
        }
      ],
      "name": "GameJamFinished",
      "type": "event"
    },
    {
      "anonymous": false,
      "inputs": [
        {
          "indexed": false,
          "internalType": "uint256",
          "name": "startTime",
          "type": "uint256"
        }
      ],
      "name": "GameJameStarted",
      "type": "event"
    },
    {
      "anonymous": false,
      "inputs": [
        {
          "indexed": false,
          "internalType": "address",
          "name": "competitorVotedFor",
          "type": "address"
        }
      ],
      "name": "VoteCast",
      "type": "event"
    },
    {
      "anonymous": false,
      "inputs": [
        {
          "indexed": false,
          "internalType": "address",
          "name": "winner",
          "type": "address"
        }
      ],
      "name": "WinnerDeclared",
      "type": "event"
    },
    {
      "constant": true,
      "inputs": [],
      "name": "balance",
      "outputs": [
        {
          "internalType": "uint256",
          "name": "",
          "type": "uint256"
        }
      ],
      "payable": false,
      "stateMutability": "view",
      "type": "function"
    },
    {
      "constant": true,
      "inputs": [
        {
          "internalType": "address",
          "name": "",
          "type": "address"
        }
      ],
      "name": "competitors",
      "outputs": [
        {
          "internalType": "string",
          "name": "ipfsHash",
          "type": "string"
        },
        {
          "internalType": "uint256",
          "name": "votes",
          "type": "uint256"
        }
      ],
      "payable": false,
      "stateMutability": "view",
      "type": "function"
    },
    {
      "constant": true,
      "inputs": [
        {
          "internalType": "address",
          "name": "account",
          "type": "address"
        }
      ],
      "name": "isGameJamAdmin",
      "outputs": [
        {
          "internalType": "bool",
          "name": "",
          "type": "bool"
        }
      ],
      "payable": false,
      "stateMutability": "view",
      "type": "function"
    },
    {
      "constant": true,
      "inputs": [],
      "name": "stage",
      "outputs": [
        {
          "internalType": "enum GameJamCommon.Stages",
          "name": "",
          "type": "uint8"
        }
      ],
      "payable": false,
      "stateMutability": "view",
      "type": "function"
    },
    {
      "constant": false,
      "inputs": [
        {
          "internalType": "address",
          "name": "admin",
          "type": "address"
        }
      ],
      "name": "initializeGameJam",
      "outputs": [],
      "payable": true,
      "stateMutability": "payable",
      "type": "function"
    },
    {
      "constant": true,
      "inputs": [],
      "name": "getAllCompetitorAddresses",
      "outputs": [
        {
          "internalType": "address[]",
          "name": "",
          "type": "address[]"
        }
      ],
      "payable": false,
      "stateMutability": "view",
      "type": "function"
    },
    {
      "constant": false,
      "inputs": [
        {
          "internalType": "address",
          "name": "competitor",
          "type": "address"
        },
        {
          "internalType": "string",
          "name": "ipfsHash",
          "type": "string"
        }
      ],
      "name": "addCompetitor",
      "outputs": [],
      "payable": false,
      "stateMutability": "nonpayable",
      "type": "function"
    },
    {
      "constant": false,
      "inputs": [],
      "name": "start",
      "outputs": [],
      "payable": false,
      "stateMutability": "nonpayable",
      "type": "function"
    },
    {
      "constant": false,
      "inputs": [
        {
          "internalType": "address",
          "name": "competitor",
          "type": "address"
        }
      ],
      "name": "vote",
      "outputs": [],
      "payable": false,
      "stateMutability": "nonpayable",
      "type": "function"
    },
    {
      "constant": false,
      "inputs": [],
      "name": "finish",
      "outputs": [],
      "payable": false,
      "stateMutability": "nonpayable",
      "type": "function"
    },
    {
      "constant": false,
      "inputs": [],
      "name": "payoutWinner",
      "outputs": [],
      "payable": false,
      "stateMutability": "nonpayable",
      "type": "function"
    }
  ],
  "bytecode": "0x60806040526000600360006101000a81548160ff0219169083600281111561002357fe5b021790555034801561003457600080fd5b506114d5806100446000396000f3fe60806040526004361061009c5760003560e01c8063b69ef8a811610064578063b69ef8a81461025c578063b7a076c614610287578063ba83e46114610358578063be9a6555146103c4578063c040e6b8146103db578063d56b2889146104145761009c565b806307552463146100a15780630f6feac2146100b857806334675aeb1461012157806362436371146101655780636dd7d8ea1461020b575b600080fd5b3480156100ad57600080fd5b506100b661042b565b005b3480156100c457600080fd5b50610107600480360360208110156100db57600080fd5b81019080803573ffffffffffffffffffffffffffffffffffffffff169060200190929190505050610634565b604051808215151515815260200191505060405180910390f35b6101636004803603602081101561013757600080fd5b81019080803573ffffffffffffffffffffffffffffffffffffffff169060200190929190505050610651565b005b34801561017157600080fd5b506102096004803603604081101561018857600080fd5b81019080803573ffffffffffffffffffffffffffffffffffffffff169060200190929190803590602001906401000000008111156101c557600080fd5b8201836020820111156101d757600080fd5b803590602001918460018302840111640100000000831117156101f957600080fd5b9091929391929390505050610664565b005b34801561021757600080fd5b5061025a6004803603602081101561022e57600080fd5b81019080803573ffffffffffffffffffffffffffffffffffffffff169060200190929190505050610924565b005b34801561026857600080fd5b50610271610b6a565b6040518082815260200191505060405180910390f35b34801561029357600080fd5b506102d6600480360360208110156102aa57600080fd5b81019080803573ffffffffffffffffffffffffffffffffffffffff169060200190929190505050610b70565b6040518080602001838152602001828103825284818151815260200191508051906020019080838360005b8381101561031c578082015181840152602081019050610301565b50505050905090810190601f1680156103495780820380516001836020036101000a031916815260200191505b50935050505060405180910390f35b34801561036457600080fd5b5061036d610c2c565b6040518080602001828103825283818151815260200191508051906020019060200280838360005b838110156103b0578082015181840152602081019050610395565b505050509050019250505060405180910390f35b3480156103d057600080fd5b506103d9610cba565b005b3480156103e757600080fd5b506103f0610dd9565b6040518082600281111561040057fe5b60ff16815260200191505060405180910390f35b34801561042057600080fd5b50610429610dec565b005b61043433610634565b610489576040517f08c379a000000000000000000000000000000000000000000000000000000000815260040180806020018281038252604681526020018061145b6046913960600191505060405180910390fd5b600280600281111561049757fe5b600360009054906101000a900460ff1660028111156104b257fe5b14610508576040517f08c379a00000000000000000000000000000000000000000000000000000000081526004018080602001828103825260278152602001806113f16027913960400191505060405180910390fd5b600060015411801561053357506001543073ffffffffffffffffffffffffffffffffffffffff163110155b1561063157600360019054906101000a900473ffffffffffffffffffffffffffffffffffffffff1673ffffffffffffffffffffffffffffffffffffffff166108fc6001549081150290604051600060405180830381858888f193505050501580156105a2573d6000803e3d6000fd5b5060006001819055507f5bcf61278175a9b1e3c7cca2a9117825ebe2477d611ecc0f35575bc6629579f1600360019054906101000a900473ffffffffffffffffffffffffffffffffffffffff16604051808273ffffffffffffffffffffffffffffffffffffffff1673ffffffffffffffffffffffffffffffffffffffff16815260200191505060405180910390a15b50565b600061064a8260006110eb90919063ffffffff16565b9050919050565b34600181905550610661816111c9565b50565b61066d33610634565b6106c2576040517f08c379a000000000000000000000000000000000000000000000000000000000815260040180806020018281038252604681526020018061145b6046913960600191505060405180910390fd5b60008060028111156106d057fe5b600360009054906101000a900460ff1660028111156106eb57fe5b14610741576040517f08c379a00000000000000000000000000000000000000000000000000000000081526004018080602001828103825260278152602001806113f16027913960400191505060405180910390fd5b60008383905014156107bb576040517f08c379a00000000000000000000000000000000000000000000000000000000081526004018080602001828103825260108152602001807f696e636f7272656374206c656e6774680000000000000000000000000000000081525060200191505060405180910390fd5b60028490806001815401808255809150509060018203906000526020600020016000909192909190916101000a81548173ffffffffffffffffffffffffffffffffffffffff021916908373ffffffffffffffffffffffffffffffffffffffff160217905550508282600460008773ffffffffffffffffffffffffffffffffffffffff1673ffffffffffffffffffffffffffffffffffffffff168152602001908152602001600020600001919061087292919061134b565b506000600460008673ffffffffffffffffffffffffffffffffffffffff1673ffffffffffffffffffffffffffffffffffffffff168152602001908152602001600020600101819055507f5c2db1fe8e7be28012487253743d81109ac5a3ffced6c0d2bd7db7bf65277bfb84604051808273ffffffffffffffffffffffffffffffffffffffff1673ffffffffffffffffffffffffffffffffffffffff16815260200191505060405180910390a150505050565b61092d33610634565b610982576040517f08c379a000000000000000000000000000000000000000000000000000000000815260040180806020018281038252604681526020018061145b6046913960600191505060405180910390fd5b600180600281111561099057fe5b600360009054906101000a900460ff1660028111156109ab57fe5b14610a01576040517f08c379a00000000000000000000000000000000000000000000000000000000081526004018080602001828103825260278152602001806113f16027913960400191505060405180910390fd5b6000600460008473ffffffffffffffffffffffffffffffffffffffff1673ffffffffffffffffffffffffffffffffffffffff1681526020019081526020016000206000018054600181600116156101000203166002900490501415610ab1576040517f08c379a000000000000000000000000000000000000000000000000000000000815260040180806020018281038252602181526020018061143a6021913960400191505060405180910390fd5b600460008373ffffffffffffffffffffffffffffffffffffffff1673ffffffffffffffffffffffffffffffffffffffff168152602001908152602001600020600101600081548092919060010191905055507fb87a61d78bd15221c59b983f6ef032fbde0631e66bfe18d1421fe5a73c16741d82604051808273ffffffffffffffffffffffffffffffffffffffff1673ffffffffffffffffffffffffffffffffffffffff16815260200191505060405180910390a15050565b60015481565b6004602052806000526040600020600091509050806000018054600181600116156101000203166002900480601f016020809104026020016040519081016040528092919081815260200182805460018160011615610100020316600290048015610c1c5780601f10610bf157610100808354040283529160200191610c1c565b820191906000526020600020905b815481529060010190602001808311610bff57829003601f168201915b5050505050908060010154905082565b60606002805480602002602001604051908101604052809291908181526020018280548015610cb057602002820191906000526020600020905b8160009054906101000a900473ffffffffffffffffffffffffffffffffffffffff1673ffffffffffffffffffffffffffffffffffffffff1681526020019060010190808311610c66575b5050505050905090565b610cc333610634565b610d18576040517f08c379a000000000000000000000000000000000000000000000000000000000815260040180806020018281038252604681526020018061145b6046913960600191505060405180910390fd5b6000806002811115610d2657fe5b600360009054906101000a900460ff166002811115610d4157fe5b14610d97576040517f08c379a00000000000000000000000000000000000000000000000000000000081526004018080602001828103825260278152602001806113f16027913960400191505060405180910390fd5b7f8191bc0927e9ff0bd2b5c4d0975cbe0a05c45afbf2ec01a0d3f176a997596aeb426040518082815260200191505060405180910390a1610dd6611223565b50565b600360009054906101000a900460ff1681565b610df533610634565b610e4a576040517f08c379a000000000000000000000000000000000000000000000000000000000815260040180806020018281038252604681526020018061145b6046913960600191505060405180910390fd5b6001806002811115610e5857fe5b600360009054906101000a900460ff166002811115610e7357fe5b14610ec9576040517f08c379a00000000000000000000000000000000000000000000000000000000081526004018080602001828103825260278152602001806113f16027913960400191505060405180910390fd5b60006002600081548110610ed957fe5b9060005260206000200160009054906101000a900473ffffffffffffffffffffffffffffffffffffffff16905060008090505b600280549050811015611024576004600060028381548110610f2a57fe5b9060005260206000200160009054906101000a900473ffffffffffffffffffffffffffffffffffffffff1673ffffffffffffffffffffffffffffffffffffffff1673ffffffffffffffffffffffffffffffffffffffff16815260200190815260200160002060010154600460008473ffffffffffffffffffffffffffffffffffffffff1673ffffffffffffffffffffffffffffffffffffffff1681526020019081526020016000206001015410156110175760028181548110610fe957fe5b9060005260206000200160009054906101000a900473ffffffffffffffffffffffffffffffffffffffff1691505b8080600101915050610f0c565b508073ffffffffffffffffffffffffffffffffffffffff16600360016101000a81548173ffffffffffffffffffffffffffffffffffffffff021916908373ffffffffffffffffffffffffffffffffffffffff1602179055507f2d66076f24af48812dc2fdd69ac3d62bc732d6766ce65fdf93a45675faba22bd81604051808273ffffffffffffffffffffffffffffffffffffffff1673ffffffffffffffffffffffffffffffffffffffff16815260200191505060405180910390a1506110e8611223565b50565b60008073ffffffffffffffffffffffffffffffffffffffff168273ffffffffffffffffffffffffffffffffffffffff161415611172576040517f08c379a00000000000000000000000000000000000000000000000000000000081526004018080602001828103825260228152602001806114186022913960400191505060405180910390fd5b8260000160008373ffffffffffffffffffffffffffffffffffffffff1673ffffffffffffffffffffffffffffffffffffffff16815260200190815260200160002060009054906101000a900460ff16905092915050565b6111dd81600061127090919063ffffffff16565b8073ffffffffffffffffffffffffffffffffffffffff167f9d667829fd9a3d77e814b7334ea10a9442f6f29357d304db86d1fa5f4b305a2460405160405180910390a250565b6001600360009054906101000a900460ff16600281111561124057fe5b01600281111561124c57fe5b600360006101000a81548160ff0219169083600281111561126957fe5b0217905550565b61127a82826110eb565b156112ed576040517f08c379a000000000000000000000000000000000000000000000000000000000815260040180806020018281038252601f8152602001807f526f6c65733a206163636f756e7420616c72656164792068617320726f6c650081525060200191505060405180910390fd5b60018260000160008373ffffffffffffffffffffffffffffffffffffffff1673ffffffffffffffffffffffffffffffffffffffff16815260200190815260200160002060006101000a81548160ff0219169083151502179055505050565b828054600181600116156101000203166002900490600052602060002090601f016020900481019282601f1061138c57803560ff19168380011785556113ba565b828001600101855582156113ba579182015b828111156113b957823582559160200191906001019061139e565b5b5090506113c791906113cb565b5090565b6113ed91905b808211156113e95760008160009055506001016113d1565b5090565b9056fe46756e6374696f6e2063616e6e6f742062652063616c6c656420617420746869732074696d652e526f6c65733a206163636f756e7420697320746865207a65726f206164647265737353686f756c642062652061207265676973746572656420636f6d70657469746f7247616d654a616d41646d696e20726f6c652072657175697265643a2063616c6c657220646f6573206e6f742068617665207468652047616d654a616d41646d696e20726f6c65a265627a7a72315820f43a9ed77d73735f0c84b4840eea282fc570158e92e9a61224603cef676d4d1c64736f6c634300050c0032",
  "source": "pragma solidity 0.5.12;\n\nimport \"openzeppelin-solidity/contracts/access/Roles.sol\";\nimport \"./GameJamCommon.sol\";\n\n\ncontract GameJam is GameJamCommon {\n  event GameJamAdminAdded(address indexed account);\n  event CompetitorAdded(address competitor);\n  event VoteCast(address competitorVotedFor);\n  event GameJameStarted(uint startTime);\n  event WinnerDeclared(address winner);\n  event GameJamFinished(address winner);\n\n  function initializeGameJam(address admin)\n    public\n    payable\n  {\n    balance = msg.value;\n    _addGameJamAdmin(admin);\n  }\n\n  function _addGameJamAdmin(address account)\n    internal\n  {\n    admins.add(account);\n    emit GameJamAdminAdded(account);\n  }\n\n  // Return all competitor addresses\n  function getAllCompetitorAddresses()\n    public\n    view\n    returns (address[] memory)\n  {\n    return competitorAddresses;\n  }\n\n  // addCompetitor is called when a user registers for a GameJam\n  function addCompetitor(\n    address competitor,\n    string calldata ipfsHash\n  )\n    external\n    onlyGameJamAdmin\n    onlyAtStage(Stages.Registration)\n  {\n    require(bytes(ipfsHash).length != 0, \"incorrect length\");\n    competitorAddresses.push(competitor);\n\n    competitors[competitor].ipfsHash = ipfsHash;\n    competitors[competitor].votes = 0;\n\n    emit CompetitorAdded(competitor);\n  }\n\n  // start function is called when a game jam is ready to begin\n  function start()\n    external\n    onlyGameJamAdmin\n    onlyAtStage(Stages.Registration)\n    transitionNext\n  {\n    emit GameJameStarted(now);\n  }\n\n  // vote function is used to vote for competitors\n  function vote(address competitor)\n    external\n    onlyGameJamAdmin\n    onlyAtStage(Stages.InProgress)\n  {\n    require(\n      bytes(competitors[competitor].ipfsHash).length != 0,\n      \"Should be a registered competitor\"\n    );\n\n    competitors[competitor].votes++;\n    emit VoteCast(competitor);\n  }\n\n  // finish function is used to declare the winner via their address\n  function finish()\n    external\n    onlyGameJamAdmin\n    onlyAtStage(Stages.InProgress)\n    transitionNext\n  {\n    address winningCompetitor = competitorAddresses[0];\n    for(uint i = 0; i < competitorAddresses.length; i++) {\n      if(competitors[winningCompetitor].votes < competitors[competitorAddresses[i]].votes) {\n        winningCompetitor = competitorAddresses[i];\n      }\n    }\n\n    // Have to do this strange conversion to make `address` => `address payable`\n    winner = address(uint(winningCompetitor));\n\n    emit WinnerDeclared(winningCompetitor);\n  }\n\n  // payoutWinner is used after the Jam to payout the declared winner\n  function payoutWinner()\n    external\n    onlyGameJamAdmin\n    onlyAtStage(Stages.Finished)\n  {\n    if (balance > 0 && address(this).balance >= balance) {\n      winner.transfer(balance);\n      balance = 0;\n      emit GameJamFinished(winner);\n    }\n  }\n}",
  "sourcePath": "/home/bbk-dev/git/game-jam-smart-contracts/contracts/GameJam.sol",
  "compiler": {
    "name": "solc",
    "version": "0.5.12+commit.7709ece9.Emscripten.clang"
  },
  "schemaVersion": "3.0.16",
  "updatedAt": "2019-10-26T19:37:07.954Z",
  "devdoc": {
    "methods": {}
  },
  "userdoc": {
    "methods": {}
  }
}